:100000000C9463000C948B000C948B000C948B006C
:100010000C948B000C948B000C948B000C94D205E8
:100020000C948B000C948B000C948B000C948B0024
:100030000C948B000C948B000C948B000C948B0014
:100040000C9486060C948B000C9454060C942E068B
:100050000C948B000C948B000C948B000C948B00F4
:100060000C948B000C948B000000000024002700EF
:100070002A0000000008000201000003040700003D
:1000800000000000000000000000230026002900FE
:10009000010204081020408001020408102001021F
:1000A0000408102000000000250028002B00040494
:1000B0000404040404040202020202020303030310
:1000C00003030200150711241FBECFEFD8E0DEBFE7
:1000D000CDBF11E0A0E0B1E0EAEBF2E102C0059093
:1000E0000D92A03BB107D9F722E0A0EBB1E001C02F
:1000F0001D92AF37B207E1F710E0C3E6D0E004C0CD
:100100002197FE010E945509C236D107C9F70E9406
:100110005F070C945B090C940000AF92BF92CF92E2
:10012000DF92EF92FF920F931F93CF93DF936C01B7
:100130007B018B01040F151FEB015E01AE18BF0898
:10014000C017D10759F06991D601ED91FC9101904A
:10015000F081E02DC6010995892B79F7C501DF9162
:10016000CF911F910F91FF90EF90DF90CF90BF90B4
:10017000AF900895FC01538D448D252F30E0842FDE
:1001800090E0821B930B541710F0CF9608950197BF
:100190000895FC01918D828D981761F0A28DAE0FAC
:1001A000BF2FB11D5D968C91928D9F5F9F73928F33
:1001B00090E008958FEF9FEF0895FC01918D828D5F
:1001C000981731F0828DE80FF11D858D90E008952C
:1001D0008FEF9FEF0895FC01918D228D892F90E084
:1001E000805C9F4F821B91098F73992708958AEC39
:1001F00091E00E94EB0021E0892B09F420E0822F9E
:10020000089580E090E0892B29F00E94F700811189
:100210000C9400000895FC01A48DA80FB92FB11D06
:10022000A35ABF4F2C91848D90E001968F7399272C
:10023000848FA689B7892C93A089B1898C9183700A
:1002400080648C93938D848D981306C00288F38903
:10025000E02D80818F7D80830895EF92FF920F9330
:100260001F93CF93DF93EC0181E0888F9B8D8C8D62
:1002700098131AC0E889F989808185FF15C09FB756
:10028000F894EE89FF896083E889F9898081837019
:10029000806480839FBF81E090E0DF91CF911F91C8
:1002A0000F91FF90EF900895F62E0B8D10E00F5FE9
:1002B0001F4F0F731127E02E8C8D8E110CC00FB6BF
:1002C00007FCFACFE889F989808185FFF5CFCE0157
:1002D0000E940B01F1CFEB8DEC0FFD2FF11DE35AC6
:1002E000FF4FF0829FB7F8940B8FEA89FB898081DA
:1002F0008062CFCFCF93DF93EC01888D8823B9F054
:10030000AA89BB89E889F9898C9185FD03C0808120
:1003100086FD0DC00FB607FCF7CF8C9185FFF2CF9D
:10032000808185FFEDCFCE010E940B01E9CFDF91E7
:10033000CF91089590E0FC01EE58FF4F2491FC010D
:10034000E057FF4F3491FC01E255FF4FE491EE235B
:10035000C9F0222339F0233001F1A8F4213019F13A
:10036000223029F1F0E0EE0FFF1FEC55FF4FA59171
:10037000B4918FB7F894EC91611126C030953E236B
:100380003C938FBF08952730A9F02830C9F024305E
:1003900049F7809180008F7D03C0809180008F7726
:1003A00080938000DFCF84B58F7784BDDBCF84B5A9
:1003B0008F7DFBCF8091B0008F778093B000D2CF3C
:1003C0008091B0008F7DF9CF3E2BDACF9091000164
:1003D00089130BC0E2ECF0E0E4919FEF90930001F1
:1003E000E13049F028F0E23061F060E00C949A01CD
:1003F00010926E00FACF90916F009D7F90936F00E6
:10040000F4CF909170009D7F9093700091E0909355
:10041000B0009091B100987F94609093B1001092D9
:10042000B300E3CFCF93DF9390E0FC01E057FF4FA1
:10043000249182559F4FFC0184918823D1F090E054
:10044000880F991FFC01E859FF4FA591B491FC0159
:10045000EC55FF4FC591D49161110EC09FB7F89430
:100460008C91E22FE0958E238C932881E223E88300
:100470009FBFDF91CF9108958FB7F894EC91E22B55
:10048000EC938FBFF6CFCF92DF92EF92FF92CF9394
:100490006C0180910001873049F08F3F09F44FC013
:1004A000CF91FF90EF90DF90CF900895E2ECF0E0D5
:1004B000C491C7FDF5CF61E087E00E941202CC2312
:1004C00019F0C23009F0D9C0F12CE12C68E478EEC3
:1004D00081E090E0A70196010E942209BA01A901DA
:1004E0004150510961097109CC2309F406C1C23098
:1004F00009F094C04F3F51056105710509F00CF4F6
:10050000BAC064E274EF80E090E0A70196010E9417
:100510002209BA01A901415051096109710995E007
:100520008091B100887F892B8093B100C13009F49C
:10053000BCC0C23009F4CEC0C111B2CF8AC087E0BE
:1005400080930001E2ECF0E0C491CF3F09F4A8CF22
:10055000C13021F150F0C23009F43EC0C7FDA0CF38
:1005600061E087E00E941202ACCF14BC15BC84B5D8
:10057000826084BD85B5816085BDE5EBF0E0E491E6
:10058000F0E0EE0FFF1FEC55FF4F85919491E7E9E6
:10059000F0E0E491E093BD01C0E08DCF10928000C7
:1005A0001092810080918100886080938100809109
:1005B0008100816080938100E5EBF0E0E491F0E060
:1005C000EE0FFF1FEC55FF4F85919491E7E9F0E0A6
:1005D000E491E093BC016FCF1092B0001092B10093
:1005E0008091B00082608093B0008091B100816002
:1005F0008093B100E5EBF0E0E491F0E0EE0FFF1F37
:10060000EC55FF4F859194919093BB018093BA0173
:10061000E7E9F0E0E491E093B9014DCF4F3F510598
:100620006105710541F13CF162E17AE780E090E01B
:10063000A70196010E942209BA01A901415051095E
:1006400061097109C11162C094E085B5887F892B69
:1006500085BD47BD8FEF9FEFDC018093C60190936E
:10066000C701A093C801B093C90180916E00826058
:1006700080936E0015CF94E053CF960150E040E098
:1006800060E072E18AE790E00E942209BA01A901C4
:100690004150510961097109C13009F047CF80917A
:1006A0008100887F8160809381005093890040930E
:1006B00088008FEF9FEFDC018093C2019093C3010C
:1006C000A093C401B093C50180916F0082608093B4
:1006D0006F00E6CE4093B3008FEF9FEFDC01809375
:1006E000BE019093BF01A093C001B093C10180915E
:1006F0007000826080937000D3CE93E04F3F51052D
:100700006105710511F00CF08FCF9FCF96E008CFF7
:100710003FB7F8948091B5019091B601A091B701CF
:10072000B091B80126B5A89B05C02F3F19F00196DE
:10073000A11DB11D3FBFBA2FA92F982F8827BC013B
:10074000CD01620F711D811D911D42E0660F771F63
:10075000881F991F4A95D1F708958F929F92AF9263
:10076000BF92CF92DF92EF92FF924B015C010E9409
:1007700088036B017C010E9488036C197D098E0936
:100780009F09683E734081059105A8F321E0821A14
:100790009108A108B10888EEC80E83E0D81EE11CBC
:1007A000F11C81149104A104B10429F7FF90EF908A
:1007B000DF90CF90BF90AF909F908F900895089555
:1007C00090E080E00895CF93DF93EC0160E08E81AC
:1007D0000E949A0161E08E810E949A0160E08E8100
:1007E0000E949A018BE891E00197F1F7DF91CF9198
:1007F0000895CF92DF92EF92FF920F931F93CF93C2
:10080000DF936C017C0187E0E80EF11CD0E0C0E0D2
:10081000062F10E0B8010C2E02C0759567950A945A
:10082000E2F76170F70181917F010E949A012196A0
:10083000C430D10579F7C601DF91CF911F910F9197
:10084000FF90EF90DF90CF900C94E303CF92DF9274
:10085000EF92FF920F931F93CF93DF93EC01F62E4D
:10086000642F8C810E949A018D818F3F19F060E086
:100870000E949A010F2D10E08F8584FF25C06E0124
:1008800087E0C80ED11CF12CE12CB8010E2C02C05F
:10089000759567950A94E2F76170F60181916F0191
:1008A0000E949A01FFEFEF1AFF0A88E0E816F104B0
:1008B00061F7CE01DF91CF911F910F91FF90EF90E3
:1008C000DF90CF900C94E303B80184E075956795B1
:1008D0008A95E1F7CE010E94F9036F2DCE01DF91D9
:1008E000CF911F910F91FF90EF90DF90CF900C94DC
:1008F000F90340E0682F87E692E00C942604CF933A
:10090000DF93823029F4909176029860909376027A
:1009100080937A0210927B0280E480937C0280E1D3
:1009200080937D0280E580937E0261E080916B027E
:100930000E94120280916C028F3F19F061E00E94C8
:10094000120261E080916D020E941202C7E6D2E0BD
:100950009E01275632408091760284FD0BC084E0D0
:1009600090E021962817390744F461E08E810E94B7
:100970001202EECF88E090E0F4CF8BE39DE0019788
:10098000F1F760E080916B020E949A0160E0809133
:100990006D020E949A0180916C028F3F19F060E015
:1009A0000E949A018091760284FD39C063E087E657
:1009B00092E00E94F903CBE4D6E4CE010197F1F76F
:1009C00063E087E692E00E94F9032197F1F763E084
:1009D00087E692E00E94F90383E592E00197F1F740
:1009E00062E087E692E00E94F903809176028062DD
:1009F0000E94790484E0809377028CE00E9479045D
:100A000081E00E9479048BE39FE10197F1F782E096
:100A10008093780286E0DF91CF910C947904806214
:100A20000E9479048BE496E40197F1F780917602B5
:100A300080620E94790483E592E00197F1F780914A
:100A4000760280620E947904D0CF90917A02891751
:100A500010F08FEF890FE82FF0E0E959FD4F8489FE
:100A600080680C94790441E00E94260481E090E0C3
:100A70000895FB0101900020E9F73197AF01461B73
:100A8000570BDC01ED91FC910280F381E02D09947C
:100A90004F925F926F927F928F929F92AF92BF928E
:100AA000EF92FF920F931F93CF93DF93CDB7DEB7F3
:100AB000A1970FB6F894DEBF0FBECDBF7C014B01EE
:100AC000072E000CAA08BB0877FF47C0DC01ED9198
:100AD000FC910190F081E02D6DE209958C012227B7
:100AE0003327A901281939094A095B0919A2FE010E
:100AF000B1965F019AE0492E512C612C712CCA01EC
:100B0000B901A30192010E940009605DD5016E93B5
:100B10005D01211531054105510589F790E080E01F
:100B2000109721F0BD01C7010E943905800F911F68
:100B3000A1960FB6F894DEBF0FBECDBFDF91CF9167
:100B40001F910F91FF90EF90BF90AF909F908F906B
:100B50007F906F905F904F900895A501940119A226
:100B60008E010F5D1F4F8AE0882E912CA12CB12C95
:100B7000CA01B901A50194010E940009605DF80154
:100B800062938F01211531054105510589F790E0E8
:100B900080E0309769F2BF01C7010E943905C8CFD4
:100BA0000C9439051F920F920FB60F9211242F93B8
:100BB0003F934F935F936F937F938F939F93AF93E5
:100BC000BF93EF93FF938091BE019091BF01A091DD
:100BD000C001B091C101892B8A2B8B2BD1F190914F
:100BE000B901E091BA01F091BB018081892780832E
:100BF0008091BE019091BF01A091C001B091C1014F
:100C0000181619061A061B069CF48091BE019091D5
:100C1000BF01A091C001B091C1010197A109B10923
:100C20008093BE019093BF01A093C001B093C10116
:100C3000FF91EF91BF91AF919F918F917F916F91B4
:100C40005F914F913F912F910F900FBE0F901F908A
:100C50001895809100010E94E601EACF1F920F9241
:100C60000FB60F9211242F933F934F935F936F937F
:100C70007F938F939F93AF93BF93EF93FF938AECF0
:100C800091E00E940B01FF91EF91BF91AF919F9175
:100C90008F917F916F915F914F913F912F910F9025
:100CA0000FBE0F901F9018951F920F920FB60F92C4
:100CB00011242F938F939F93EF93FF93E091DA0189
:100CC000F091DB018081E091E001F091E10182FD92
:100CD0001BC090818091E3018F5F8F732091E401AD
:100CE000821741F0E091E301F0E0E653FE4F958F6B
:100CF0008093E301FF91EF919F918F912F910F903E
:100D00000FBE0F901F9018958081F4CF1F920F9205
:100D10000FB60F9211242F933F938F939F93AF930E
:100D2000BF938091B1019091B201A091B301B091B4
:100D3000B4013091B00123E0230F2D3758F501960F
:100D4000A11DB11D2093B0018093B1019093B20118
:100D5000A093B301B093B4018091B5019091B60115
:100D6000A091B701B091B8010196A11DB11D80936A
:100D7000B5019093B601A093B701B093B801BF91AC
:100D8000AF919F918F913F912F910F900FBE0F9038
:100D90001F90189526E8230F0296A11DB11DD2CFF2
:100DA000CF92DF92EF92FF920F931F93E82FF92FCC
:100DB00005C0015011092109310961F19081962383
:100DC0009417B9F305C0015011092109310911F136
:100DD000908196239413F7CFC12CD12CE12CF12CC8
:100DE0000AC08FEFC81AD80AE80AF80A0C151D05C0
:100DF0002E053F0579F080818623841791F36C2DB1
:100E00007D2D8E2D9F2D1F910F91FF90EF90DF90E4
:100E1000CF90089560E070E080E090E01F910F9126
:100E2000FF90EF90DF90CF900895EAECF1E013820D
:100E3000128288EE93E0A0E0B0E084839583A683DD
:100E4000B78385E091E09183808385EC90E095877E
:100E5000848784EC90E09787868780EC90E0918B84
:100E6000808B81EC90E0938B828B82EC90E0958B71
:100E7000848B86EC90E0978B868B118E128E138E6E
:100E8000148EE7E6F2E01382128287E191E091830B
:100E900080838CE084838FEF85838BE0868385E07D
:100EA000878384E0808783E0818782E0828713865E
:100EB000148615861686178681E00C947F04789434
:100EC00084B5826084BD84B5816084BD85B582604F
:100ED00085BD85B5816085BD80916E008160809300
:100EE0006E00109281008091810082608093810069
:100EF0008091810081608093810080918000816079
:100F0000809380008091B10084608093B1008091D3
:100F1000B00081608093B00080917A0084608093FB
:100F20007A0080917A00826080937A0080917A00C2
:100F3000816080937A0080917A00806880937A0043
:100F40001092C10082E00E947F0480E00E9425058B
:100F50006FE171E087E692E00E94D005E091DA014E
:100F6000F091DB0182E08083E091D601F091D7011E
:100F70001082E091D801F091D9018FEC808310921A
:100F8000E201E091DE01F091DF0186E08083E091F3
:100F9000DC01F091DD01808180618083E091DC01E2
:100FA000F091DD01808188608083E091DC01F09127
:100FB000DD01808180688083E091DC01F091DD01BA
:100FC00080818F7D808381E00E94250560E371E050
:100FD00087E692E00E94D00560E08AE00E9412025B
:100FE00061E089E00E94120268EE73E080E090E028
:100FF0000E94AD0380E00E94250561E471E087E670
:1010000092E00E94D00581E00E94250562E571E032
:1010100087E692E00E94D00568EE73E080E090E001
:101020000E94AD0393E0E92EF12C23E2C22ED12CD5
:101030003AE9432E30E0532E48EB642E40E0742E04
:101040005AE3A52EB12C60E0862E60E0962E81E05A
:101050000E94250560E089E00E949A01C70101977E
:10106000F1F761E089E00E949A01C6010197F1F76A
:1010700060E089E00E949A01F2016491F301849199
:10108000E82FF0E0EE0FFF1FEA57FF4F8591949194
:1010900000E412E42FE030E0462F0E94D0066115F4
:1010A00071058105910529F06F5F7F4F8F4F9F4F2D
:1010B0009F70CB01B5010E94EC08EB01653671050C
:1010C000DCF163E671E087E692E00E94D00580E9FA
:1010D00091E00E94430268EC70E080E090E00E94A2
:1010E000AD0387E00E94E60168EE73E080E090E0E7
:1010F0000E94AD03BE0187E692E00E94480567EAC0
:1011000071E087E692E00E94D005BE018AEC91E092
:101110000E9448056AEA71E08AEC91E00E94D005DD
:101120008114910409F493CF0E94F700882309F4F5
:101130008ECF0E9400008BCFCB0144974F97C0F415
:1011400064E771E087E692E00E94D00588E592E0CE
:101150000E94430268EC70E080E090E00E94AD03E2
:1011600087E00E94E60164EF71E080E090E0C0CF8C
:10117000CB010A970A97C0F465E871E087E692E030
:101180000E94D00584E893E00E94430268EC70E07E
:1011900080E090E00E94AD0387E00E94E60164E6F3
:1011A00070E080E090E0A4CF66E971E087E692E02D
:1011B0000E94D00584E893E00E94430264E670E058
:1011C00080E090E00E94AD0387E00E94E60162E3C8
:1011D00070E080E090E08CCF97FB072E16F400942F
:1011E00007D077FD09D00E94410907FC05D03EF4E5
:1011F000909581959F4F0895709561957F4F0895C3
:10120000A1E21A2EAA1BBB1BFD010DC0AA1FBB1F0A
:10121000EE1FFF1FA217B307E407F50720F0A21B7C
:10122000B30BE40BF50B661F771F881F991F1A94E9
:1012300069F760957095809590959B01AC01BD0113
:10124000CF010895052E97FB1EF400940E943909E2
:1012500057FD07D00E94000907FC03D04EF40C9400
:10126000390950954095309521953F4F4F4F5F4F2D
:10127000089590958095709561957F4F8F4F9F4F02
:101280000895AA1BBB1B51E107C0AA1FBB1FA617CD
:10129000B70710F0A61BB70B881F991F5A95A9F71F
:1012A00080959095BC01CD010895EE0FFF1F05902C
:0A12B000F491E02D0994F894FFCFAB
:1012BA00FF000000002D018D00BA007A01EB00C981
:1012CA0000DD000000000033058D00E003DF03208D
:1012DA0053656E736F7220205061726B69722000C1
:1012EA00202020627920204B656C2E203920202076
:1012FA00005374617475733A202020202020202026
:10130A0020002020202020202020202020202020F3
:10131A0020200020205445525553204D554E445507
:10132A0052202000202050454C414E202050454C50
:10133A00414E2020002020202020204157415321C7
:10134A002020202020002020202053544F4F50508E
:10135A0021212020202000636D0020636D0A0000F7
:00000001FF
